:020000040800F2
:10000000000002201D5600087156000871560008B5
:100010007156000871560008715600080000000073
:100020000000000000000000000000007156000801
:100030007156000800000000715600089102000887
:100040007156000871560008715600087156000874
:100050007156000871560008715600087156000864
:100060007156000871560008715600087156000854
:100070007156000871560008715600087156000844
:100080007156000871560008715600087156000834
:100090007156000871560008715600087156000824
:1000A0007156000871560008715600087156000814
:1000B0007156000871560008715600087156000804
:1000C00071560008715600087156000871560008F4
:1000D00071560008715600087156000871560008E4
:1000E00071560008715600087156000871560008D4
:1000F00071560008715600087156000871560008C4
:1001000071560008715600087156000871560008B3
:1001100071560008715600087156000871560008A3
:100120007156000871560008715600087156000893
:100130007156000871560008715600087156000883
:100140007156000871560008715600087156000873
:100150007156000871560008715600087156000863
:100160007156000871560008715600087156000853
:100170007156000871560008715600087156000843
:080180007156000871560008D9
:1001880080B483B000AF03463960FB7197F907303C
:10019800002B0BDA3B68DAB20C49FB7903F00F034A
:1001A800043B1201D2B20B441A7609E03B68DAB27A
:1001B800074997F907301201D2B20B4483F800239C
:1001C80000BF0C37BD465DF8047B704700ED00E0CA
:1001D80000E100E080B582B000AF78607B68B3F1E1
:1001E800807F01D3012311E07B6823F07F43094A14
:1001F800013B53600F214FF0FF30FFF7C1FF054B64
:1002080000229A60034B07221A6000231846083719
:10021800BD4680BD10E000E080B500AF054B1B680F
:10022800054AA2FB03239B091846FFF7D3FF00BF2B
:1002380080BD00BF00000020D34D621080B483B0A1
:1002480000AF7860064A7B68136000BF044B1B68E8
:10025800012BFBD800BF0C37BD465DF8047B704707
:100268001401002080B400AF064B1B68002B04D09B
:10027800044B1B68013B034A136000BFBD465DF891
:10028800047B70471401002080B500AFFFF7EAFF38
:1002980000BF80BD80B500AF164BD3F88830154A33
:1002A80043F47003C2F88830134B1B68124A43F0BA
:1002B80001031360104B00229A600F4B1B680E4A13
:1002C80023F0847323F4803313600B4B0B4A5A607A
:1002D800094B1B68084A23F480231360064B00224D
:1002E800DA6000F089F8034B4FF000629A6000BFB3
:1002F80080BD00BF00ED00E000380240103000244F
:1003080080B487B000AF00233B6100237B610223E8
:10031800FB600023BB6002237B60324B9B6803F0C9
:100328000C033B613B69042B07D0082B09D0002B39
:100338003DD12D4B2D4A1A603DE02B4B2C4A1A60BB
:1003480039E0284B5B689B0D03F00103BB60254B2C
:100358005B6803F03F037B60BB68002B0CD0244A2A
:100368007B68B2FBF3F31F4A52689209C2F3080292
:1003780002FB03F37B610BE01C4A7B68B2FBF3F3DF
:10038800184A52689209C2F3080202FB03F37B6120
:10039800144B5B681B0C03F0030301335B00FB6029
:1003A8007A69FB68B2FBF3F30F4A136003E00E4B64
:1003B8000E4A1A6000BF0B4B9B681B0903F00F0322
:1003C8000C4AD35CDBB23B61074B1A683B6922FAE3
:1003D80003F3054A136000BF1C37BD465DF8047B74
:1003E800704700BF00380240000000200024F400DD
:1003F80000127A000400002080B483B000AF00230C
:100408007B6000233B60364B1B68354A43F48033DE
:100418001360334B1B6803F400333B607B68013384
:100428007B603B68002B03D17B68B3F5A06FF0D1EC
:100438002B4B1B6803F40033002B02D001233B60D5
:1004480001E000233B603B68012B42D1244B1B6C2D
:10045800234A43F080531364224B1B68214A43F418
:10046800804313601E4B1E4A9B6893601C4B9B681D
:100478001B4A43F400439360194B9B68184A43F4A2
:10048800A0539360164B184A5A60154B1B68144AC0
:1004980043F08073136000BF114B1B6803F00073B7
:1004A800002BF9D0114B40F205621A600C4B9B6887
:1004B8000B4A23F003039360094B9B68084A43F0F7
:1004C8000203936000BF064B9B6803F00C03082BE4
:1004D800F9D100BF0C37BD465DF8047B704700BFFB
:1004E800003802400070004019544007003C0240A8
:1004F80080B400AF104B1B680F4A43F00103136030
:100508000D4B00229A600C4B1B680B4A23F0847336
:1005180023F480331360084B084A5A60064B1B6863
:10052800054A23F480231360034B0022DA6000BFDE
:10053800BD465DF8047B7047003802401030002447
:1005480080B483B000AF0346FB71064B00221A70DB
:10055800044AFB79137000BF0C37BD465DF8047B75
:10056800704700BF0238024080B582B000AF002358
:100578003B600023FB710023BB71312000F0B0FC0D
:100588000346BB713B6801333B603B68B3F5A06F22
:1005980002D0BB79002BF0D0312000F0A1FC03463B
:1005A800002B02D00123FB7101E00023FB71FB79D2
:1005B80018460837BD4680BD80B485B000AF0346F5
:1005C800FB710023FB600A4B1B68FB60FB6823F090
:1005D800F803FB60FB79DB00FA681343FB60044A0D
:1005E800FB68136000BF1437BD465DF8047B704795
:1005F8000038024080B483B000AF0346FB71044A60
:10060800FB79136000BF0C37BD465DF8047B70476B
:100618000000474280B483B000AF0346FB710D4B26
:1006280000221A700B4B00221A70FB79012B02D0A2
:10063800042B04D007E0074B01221A7003E0054B96
:1006480005221A7000BF00BF0C37BD465DF8047B59
:10065800704700BF7038024080B483B000AF0346D3
:10066800FB71044AFB79136000BF0C37BD465DF887
:10067800047B7047800E474280B485B000AFF860B5
:10068800B9607A603B607B689A01BB681A433B6833
:100698005B08013B1B041A43FB681A43BB691B0632
:1006A800044913434B6000BF1437BD465DF8047B13
:1006B800704700BF0038024080B483B000AF0346E3
:1006C800FB71044AFB79136000BF0C37BD465DF827
:1006D800047B70476000474280B483B000AF786005
:1006E80039607B689A013B681B0705491343C1F8C9
:1006F800843000BF0C37BD465DF8047B704700BFEF
:100708000038024080B483B000AF0346FB71044A4E
:10071800FB79136000BF0C37BD465DF8047B70475A
:100728006800474280B483B000AF0346FB71044AB7
:10073800FB79136000BF0C37BD465DF8047B70473A
:100748004C00474280B485B000AF78603960002320
:10075800FB600B4B9B68FB60FB6823F0EC63FB6062
:100768007A683B681343FA681343FB60044AFB68E2
:10077800936000BF1437BD465DF8047B704700BF27
:100788000038024080B485B000AF7860396000233B
:10079800FB600B4B9B68FB60FB6823F07843FB60B6
:1007A8007A683B681343FA681343FB60044AFB68A2
:1007B800936000BF1437BD465DF8047B704700BFE7
:1007C8000038024080B485B000AF78600023FB6039
:1007D800094B9B68FB60FB6823F00303FB60FA6826
:1007E8007B681343FB60044AFB68936000BF1437BF
:1007F800BD465DF8047B70470038024080B400AF06
:10080800054B9B68DBB203F00C03DBB21846BD4610
:100818005DF8047B704700BF0038024080B485B0A3
:1008280000AF78600023FB60094B9B68FB60FB68A6
:1008380023F0F003FB60FA687B681343FB60044A0B
:10084800FB68936000BF1437BD465DF8047B7047B2
:100858000038024080B485B000AF78600023FB60A8
:10086800094B9B68FB60FB6823F4E053FB60FA6864
:100878007B681343FB60044AFB68936000BF14372E
:10088800BD465DF8047B70470038024080B485B0EF
:1008980000AF78600023FB600A4B9B68FB60FB6835
:1008A80023F46043FB607B68DB00FA681343FB605A
:1008B800044AFB68936000BF1437BD465DF8047BAB
:1008C800704700BF0038024080B489B000AF78603C
:1008D8000023BB6100237B610023FB6102233B6192
:1008E8000023FB600223BB60474B9B6803F00C03AB
:1008F800BB61BB69042B07D0082B09D0002B3DD165
:100908007B68424A1A603DE07B68414A1A6039E0D8
:100918003D4B5B689B0D03F00103FB603A4B5B6842
:1009280003F03F03BB60FB68002B0CD0384ABB6860
:10093800B2FBF3F3344A52689209C2F3080202FB8D
:1009480003F3FB610BE0314ABB68B2FBF3F32E4AB9
:1009580052689209C2F3080202FB03F3FB612A4BB7
:100968005B681B0C03F0030301335B003B61FA690E
:100978003B69B2FBF3F27B681A6003E07B68234AA9
:100988001A6000BF204B9B6803F0F003BB61BB6992
:100998001B09BB611F4ABB6913441B78DBB27B612F
:1009A8007B681A687B69DA407B685A60164B9B68DB
:1009B80003F4E053BB61BB699B0ABB61154ABB6981
:1009C80013441B78DBB27B617B685A687B69DA4029
:1009D8007B689A600C4B9B6803F46043BB61BB69FE
:1009E8005B0BBB610B4ABB6913441B78DBB27B61B1
:1009F8007B685A687B69DA407B68DA6000BF243715
:100A0800BD465DF8047B7047003802400024F400BE
:100A180000127A001400002080B485B000AF78601E
:100A28000023FB607B6803F44073B3F5407F11D16A
:100A38000F4B9B68FB60FB6823F4F813FB607B6833
:100A480023F0704323F44073FA681343FB60084AA9
:100A5800FB689360064B1A6F7B68C3F30B0304496A
:100A680013430B6700BF1437BD465DF8047B70471E
:100A78000038024080B483B000AF0346FB71044ADB
:100A8800FB79136000BF0C37BD465DF8047B7047E7
:100A98003C0E474280B483B000AF0346FB71044A62
:100AA800FB79136000BF0C37BD465DF8047B7047C7
:100AB800400E474280B483B000AF7860044A7B6838
:100AC800136000BF0C37BD465DF8047B704700BF5C
:100AD8005C01474280B483B000AF78600B46FB707E
:100AE800FB78002B06D00A4B1A6B09497B68134325
:100AF8000B6306E0064B1A6B7B68DB430449134023
:100B08000B6300BF0C37BD465DF8047B704700BF20
:100B18000038024080B483B000AF78600B46FB70A9
:100B2800FB78002B06D00A4B5A6B09497B681343A4
:100B38004B6306E0064B5A6B7B68DB430449134062
:100B48004B6300BF0C37BD465DF8047B704700BFA0
:100B58000038024080B483B000AF78600B46FB7069
:100B6800FB78002B06D00A4B9A6B09497B68134324
:100B78008B6306E0064B9A6B7B68DB4304491340A2
:100B88008B6300BF0C37BD465DF8047B704700BF20
:100B98000038024080B483B000AF78600B46FB7029
:100BA800FB78002B06D00A4B1A6C09497B68134363
:100BB8000B6406E0064B1A6C7B68DB430449134060
:100BC8000B6400BF0C37BD465DF8047B704700BF5F
:100BD8000038024080B483B000AF78600B46FB70E9
:100BE800FB78002B06D00A4B5A6C09497B681343E3
:100BF8004B6406E0064B5A6C7B68DB4304491340A0
:100C08004B6400BF0C37BD465DF8047B704700BFDE
:100C18000038024080B483B000AF78600B46FB70A8
:100C2800FB78002B06D00A4B1A6909497B681343E5
:100C38000B6106E0064B1A697B68DB4304491340E5
:100C48000B6100BF0C37BD465DF8047B704700BFE1
:100C58000038024080B483B000AF78600B46FB7068
:100C6800FB78002B06D00A4B5A6909497B68134365
:100C78004B6106E0064B5A697B68DB430449134025
:100C88004B6100BF0C37BD465DF8047B704700BF61
:100C98000038024080B483B000AF78600B46FB7028
:100CA800FB78002B06D00A4B9A6909497B681343E5
:100CB8008B6106E0064B9A697B68DB430449134065
:100CC8008B6100BF0C37BD465DF8047B704700BFE1
:100CD8000038024080B483B000AF78600B46FB70E8
:100CE800FB78002B06D00A4B1A6A09497B68134324
:100CF8000B6206E0064B1A6A7B68DB430449134023
:100D08000B6200BF0C37BD465DF8047B704700BF1F
:100D18000038024080B483B000AF78600B46FB70A7
:100D2800FB78002B06D00A4B5A6A09497B681343A3
:100D38004B6206E0064B5A6A7B68DB430449134062
:100D48004B6200BF0C37BD465DF8047B704700BF9F
:100D58000038024080B483B000AF78600B46FB7067
:100D6800FB78002B06D00A4B1A6D09497B681343A0
:100D78000B6506E0064B1A6D7B68DB43044913409C
:100D88000B6500BF0C37BD465DF8047B704700BF9C
:100D98000038024080B483B000AF78600B46FB7027
:100DA800FB78002B06D00A4B5A6D09497B68134320
:100DB8004B6506E0064B5A6D7B68DB4304491340DC
:100DC8004B6500BF0C37BD465DF8047B704700BF1C
:100DD8000038024080B483B000AF78600B46FB70E7
:100DE800FB78002B06D00A4B9A6D09497B681343A0
:100DF8008B6506E0064B9A6D7B68DB43044913401C
:100E08008B6500BF0C37BD465DF8047B704700BF9B
:100E18000038024080B483B000AF78600B46FB70A6
:100E2800FB78002B06D00A4B1A6E09497B681343DE
:100E38000B6606E0064B1A6E7B68DB4304491340D9
:100E48000B6600BF0C37BD465DF8047B704700BFDA
:100E58000038024080B483B000AF78600B46FB7066
:100E6800FB78002B06D00A4B5A6E09497B6813435E
:100E78004B6606E0064B5A6E7B68DB430449134019
:100E88004B6600BF0C37BD465DF8047B704700BF5A
:100E98000038024080B483B000AF03460A46FB71B5
:100EA8001346BB71BB79002B08D00C4B1B78DAB208
:100EB8000A49FB791343DBB20B7009E0074B1B7837
:100EC800DAB2FB79DB43DBB204491340DBB20B70C7
:100ED80000BF0C37BD465DF8047B70470D380240F3
:100EE80080B487B000AF0346FB710023FB6000238A
:100EF8007B610023FB74FB795B09DBB2FB60FB6859
:100F0800012B03D1124B1B687B6109E0FB68022BA4
:100F180003D10F4B1B6F7B6102E00D4B5B6F7B6155
:100F2800FB7903F01F03FB607A69FB6822FA03F37D
:100F380003F00103002B02D00123FB7401E000231E
:100F4800FB74FB7C18461C37BD465DF8047B704774
:100F58000038024080B400AF054B5B6F044A43F091
:100F68008073536700BFBD465DF8047B704700BFC0
:100F78000038024080B485B000AF0346FB710023FF
:100F8800FB73094BDA68FB791340002B02D001236D
:100F9800FB7301E00023FB73FB7B18461437BD4647
:100FA8005DF8047B704700BF0038024080B483B00E
:100FB80000AF0346FB71044AFB79137000BF0C377E
:100FC800BD465DF8047B70470E38024080B582B09C
:100FD80000AF78607B683C4A934208D10121012028
:100FE800FFF718FE00210120FFF714FE68E07B6878
:100FF800364A934208D101210220FFF70BFE002157
:101008000220FFF707FE5BE07B68314A934208D174
:1010180001210420FFF7FEFD00210420FFF7FAFD5F
:101028004EE07B682B4A934208D101210820FFF744
:10103800F1FD00210820FFF7EDFD41E07B68264A1D
:10104800934208D101211020FFF7E4FD0021102070
:10105800FFF7E0FD34E07B68204A934208D1012184
:101068002020FFF7D7FD00212020FFF7D3FD27E040
:101078007B681B4A934208D101214020FFF7CAFD33
:1010880000214020FFF7C6FD1AE07B68154A93420D
:1010980008D101218020FFF7BDFD00218020FFF746
:1010A800B9FD0DE07B68104A934209D101214FF444
:1010B8008070FFF7AFFD00214FF48070FFF7AAFDA5
:1010C80000BF0837BD4680BD000002400004024052
:1010D80000080240000C02400010024000140240C8
:1010E80000180240001C02400020024080B487B073
:1010F80000AF7860396000237B6100233B610023E7
:10110800FB6000237B6176E001227B6902FA03F32E
:101118003B613B681B683A691340FB60FA683B69AE
:101128009A4265D17B681A687B695B00032101FAE2
:1011380003F3DB431A407B681A607B681A683B68D4
:101148001B7919467B695B0001FA03F31A437B6834
:101158001A603B681B79012B03D03B681B79022B73
:101168002ED17B689A687B695B00032101FA03F33F
:10117800DB431A407B689A607B689A683B685B79B6
:1011880019467B695B0001FA03F31A437B689A608E
:101198007B685A687B699BB2194601238B40DB4305
:1011A8001A407B685A607B685B683A689279114696
:1011B8007A6992B201FA02F292B21A437B685A60D3
:1011C8007B68DA687B699BB25B00032101FA03F351
:1011D800DB431A407B68DA607B68DA683B68DB7956
:1011E80019467B695B0001FA03F31A437B68DA60EE
:1011F8007B6901337B617B690F2B85D900BF1C3765
:10120800BD465DF8047B704780B483B000AF78605A
:101218007B684FF6FF721A607B6800221A717B6840
:1012280000225A717B6800229A717B680022DA7169
:1012380000BF0C37BD465DF8047B704780B485B0AD
:1012480000AF78600B467B804FF48033FB607A8870
:10125800FB681343FB60FA687B68DA617A887B680D
:10126800DA61FA687B68DA617B68DB69FB607B6856
:10127800DB69FB6000BF1437BD465DF8047B70472F
:1012880080B485B000AF78600B467B800023FB7389
:101298007B681A697B881340002B02D00123FB73FB
:1012A80001E00023FB73FB7B18461437BD465DF84D
:1012B800047B704780B483B000AF78607B681B699B
:1012C8009BB218460C37BD465DF8047B704780B466
:1012D80085B000AF78600B467B800023FB737B688A
:1012E8005A697B881340002B02D00123FB7301E06D
:1012F8000023FB73FB7B18461437BD465DF8047B5F
:10130800704780B483B000AF78607B685B699BB23C
:1013180018460C37BD465DF8047B704780B483B02F
:1013280000AF78600B467B807B687A881A8300BFA1
:101338000C37BD465DF8047B704780B483B000AFBE
:1013480078600B467B807B687A885A8300BF0C37AD
:10135800BD465DF8047B704780B483B000AF786009
:101368000B467B8013467B707B78002B03D07B6811
:101378007A881A8302E07B687A885A8300BF0C3720
:10138800BD465DF8047B704780B483B000AF7860D9
:101398000B467B807A887B685A6100BF0C37BD4654
:1013A8005DF8047B704780B483B000AF78600B466B
:1013B8007B807B685A697B885A407B685A6100BF8A
:1013C8000C37BD465DF8047B704780B485B000AF2C
:1013D80078600B467B8013467B700023FB600023FC
:1013E800BB607A787B8803F007039B0002FA03F35B
:1013F800FB607B88DB089BB21A467B68083253F88F
:1014080022207B8803F007039B000F2101FA03F3D6
:10141800DB437988C90889B2084602EA03017B6878
:1014280000F1080243F822107B88DB089BB21A46B9
:101438007B68083253F82230FA681343BB607B8814
:10144800DB089BB21A467B680832B96843F8221059
:1014580000BF1437BD465DF8047B704780B582B085
:1014680000AF78607B682C4A934208D10121102094
:10147800FFF750FC00211020FFF74CFC47E07B6889
:10148800264A93420AD101214FF40030FFF722FC8B
:1014980000214FF40030FFF71DFC38E07B68204A3C
:1014A80093420AD101214FF48020FFF713FC002159
:1014B8004FF48020FFF70EFC29E07B68194A93421D
:1014C8000AD101214FF40020FFF704FC00214FF45A
:1014D8000020FFF7FFFB1AE07B68134A93420AD10A
:1014E80001214FF48010FFF7F5FB00214FF4801025
:1014F800FFF7F0FB0BE07B680C4A934207D1012110
:101508002020FFF707FC00212020FFF703FC00BF85
:101518000837BD4680BD00BF0010014000440040B0
:1015280000480040004C00400050004000140140BA
:1015380080B58AB000AF7860396000237B620023F1
:101548003B620023FB610023BB617B681B8A9BB263
:101558007B627B6A23F440537B623B68DB881A46D4
:101568007B6A13437B627B6A9AB27B681A827B68C8
:101578009B899BB27B627B6A23F4B05323F00C03F4
:101588007B623B689A883B681B8913439AB23B6825
:101598005B8913439BB21A467B6A13437B627B6A5F
:1015A8009AB27B689A817B689B8A9BB27B627B6AD2
:1015B80023F440737B623B689B891A467B6A13431A
:1015C8007B627B6A9AB27B689A8207F108031846A5
:1015D800FFF77AF97B68304A934203D07B682F4A39
:1015E800934202D17B693B6201E03B693B627B68C5
:1015F8009B899BB21BB2002B0CDA3A6A13469B00FC
:1016080013449A001A443B681B685B00B2FBF3F36F
:10161800FB610BE03A6A13469B0013449A001A4494
:101628003B681B689B00B2FBF3F3FB61FB691C4A38
:10163800A2FB03235B091B017B627B6A1B096422F3
:1016480002FB03F3FA69D31ABB617B689B899BB2DF
:101658001BB2002B0CDABB69DB003233104AA2FB49
:1016680003235B0903F007037A6A13437B620BE0E9
:10167800BB691B0132330A4AA2FB03235B0903F04F
:101688000F037A6A13437B627B6A9AB27B681A817A
:1016980000BF2837BD4680BD00100140001401403E
:1016A8001F85EB5180B483B000AF78607B684FF43E
:1016B80016521A607B6800229A807B680022DA80C2
:1016C8007B6800221A817B680C225A817B68002281
:1016D8009A8100BF0C37BD465DF8047B704780B423
:1016E80085B000AF786039600023FB607B681B8A97
:1016F8009BB2FB60FB6823F47063FB603B681A884D
:101708003B685B8813439AB23B689B8813439AB241
:101718003B68DB8813439BB21A46FB681343FB60A4
:10172800FB689AB27B681A8200BF1437BD465DF821
:10173800047B704780B483B000AF78607B68002278
:101748001A807B6800225A807B6800229A807B6816
:101758000022DA8000BF0C37BD465DF8047B704775
:1017680080B483B000AF78600B46FB70FB78002B29
:1017780008D07B689B899BB243F400539AB27B687C
:101788009A8107E07B689B899BB223F400539AB245
:101798007B689A8100BF0C37BD465DF8047B7047B3
:1017A80080B483B000AF78600B46FB707B681B8BFE
:1017B8009BB223F0FF039AB27B681A837B681B8B6A
:1017C8009AB2FB789BB213439AB27B681A8300BF24
:1017D8000C37BD465DF8047B704780B483B000AF1A
:1017E80078600B46FB70FB78002B0AD07B689B89DE
:1017F8009BB26FEA43436FEA53439AB27B689A817C
:1018080007E07B689B899BB2C3F30E039AB27B689F
:101818009A8100BF0C37BD465DF8047B704780B4E1
:1018280083B000AF78600B46FB70FB78002B08D0C4
:101838007B689B8A9BB243F400639AB27B689A8266
:1018480007E07B689B8A9BB223F400639AB27B68AB
:101858009A8200BF0C37BD465DF8047B704780B4A0
:1018680083B000AF78600B467B807B88C3F30803A6
:101878009AB27B689A8000BF0C37BD465DF8047B3E
:10188800704780B483B000AF78607B689B889BB258
:10189800C3F308039BB218460C37BD465DF8047BBA
:1018A800704780B483B000AF78600B46FB707B68EC
:1018B8001B8A9BB223F00F039AB27B681A827B685B
:1018C8001B8A9AB2FB789BB213439AB27B681A823E
:1018D80000BF0C37BD465DF8047B704780B483B009
:1018E80000AF78600B46FB70FB78002B08D07B6854
:1018F8009B899BB243F002039AB27B689A8107E006
:101908007B689B899BB223F002039AB27B689A8119
:1019180000BF0C37BD465DF8047B704780B483B0C8
:1019280000AF78600B467B807B689B899BB223F471
:1019380000639AB27B689A817B689B899AB27B889C
:1019480013439AB27B689A8100BF0C37BD465DF895
:10195800047B704780B483B000AF78600B467B800F
:101968007B681B8A9BB223F020039AB27B681A8299
:101978007B681B8A9AB27B8813439AB27B681A8267
:1019880000BF0C37BD465DF8047B704780B483B058
:1019980000AF78600B46FB70FB78002B08D07B68A3
:1019A8001B8A9BB243F480439AB27B681A8207E091
:1019B8007B681B8A9BB223F480439AB27B681A82A5
:1019C80000BF0C37BD465DF8047B704780B483B018
:1019D80000AF78607B689B899BB243F001039AB2A1
:1019E8007B689A8100BF0C37BD465DF8047B704761
:1019F80080B483B000AF78600B46FB70FB78002B97
:101A080008D07B689B8A9BB243F008039AB27B6834
:101A18009A8207E07B689B8A9BB223F008039AB2FC
:101A28007B689A8200BF0C37BD465DF8047B70471F
:101A380080B483B000AF78600B46FB707B681B8B6B
:101A48009BB2DBB29AB27B681A837B681B8B9AB213
:101A5800FB789BB21B029BB213439AB27B681A8332
:101A680000BF0C37BD465DF8047B704780B483B077
:101A780000AF78600B46FB70FB78002B08D07B68C2
:101A88009B8A9BB243F020039AB27B689A8207E054
:101A98007B689B8A9BB223F020039AB27B689A8268
:101AA80000BF0C37BD465DF8047B704780B483B037
:101AB80000AF78600B46FB70FB78002B08D07B6882
:101AC8009B8A9BB243F010039AB27B689A8207E024
:101AD8007B689B8A9BB223F010039AB27B689A8238
:101AE80000BF0C37BD465DF8047B704780B483B0F7
:101AF80000AF78600B467B807B689B8A9BB223F0A3
:101B080004039AB27B689A827B689B8A9AB27B8824
:101B180013439AB27B689A8200BF0C37BD465DF8C2
:101B2800047B704780B483B000AF78600B46FB70CD
:101B3800FB78002B08D07B689B8A9BB243F002039A
:101B48009AB27B689A8207E07B689B8A9BB223F0F3
:101B580002039AB27B689A8200BF0C37BD465DF8D3
:101B6800047B704780B483B000AF78600B467B80FD
:101B780013467B707B78002B08D07B689B8A9AB2CF
:101B88007B8813439AB27B689A8209E07B689B8AB8
:101B98009AB27B88DB439BB213409AB27B689A82E5
:101BA80000BF0C37BD465DF8047B704780B487B032
:101BB80000AF78600B467B8013467B7000233B6147
:101BC8000023FB600023BB6000237B617B687B6193
:101BD8007B88DBB25B09DBB23B617B8803F01F03C8
:101BE800FB600122FB6802FA03F3BB603B69012B2F
:101BF80003D17B690C337B6109E03B69022B03D17C
:101C08007B6910337B6102E07B6914337B617B78ED
:101C1800002B06D07B6919687B69BA680A431A6089
:101C280006E07B691968BB68DA437B690A401A6079
:101C380000BF1C37BD465DF8047B704780B485B093
:101C480000AF78600B467B800023FB737B681B88A2
:101C58009AB27B8813409BB2002B02D00123FB73FE
:101C680001E00023FB73FB7B18461437BD465DF883
:101C7800047B704780B483B000AF78600B467B80EC
:101C88007B88DB439AB27B681A8000BF0C37BD465D
:101C98005DF8047B704780B487B000AF78600B466E
:101CA8007B800023FB6000237B610023BB60002353
:101CB800FB747B88DBB25B09DBB2BB607B8803F01B
:101CC8001F037B6101227B6902FA03F37B61BB6816
:101CD800012B07D17B689B899BB21A467B6913400D
:101CE8007B6111E0BB68022B07D17B681B8A9BB222
:101CF8001A467B6913407B6106E07B689B8A9BB22E
:101D08001A467B6913407B617B881B0A9BB2FB6088
:101D18000122FB6802FA03F3FB607B681B889BB215
:101D28001A46FB681340FB607B69002B05D0FB68F3
:101D3800002B02D00123FB7401E00023FB74FB7C21
:101D480018461C37BD465DF8047B704780B485B0E3
:101D580000AF78600B467B800023FB810023BB81AA
:101D68007B881B0AFB81FB89012202FA03F3BB81F2
:101D7800BB89DB439AB27B681A8000BF1437BD4623
:101D88005DF8047B704700BF80B582B000AF0F4B91
:101D98001B6B0E4A43F0040313634FF400533B607C
:101DA80001233B7101237B710123FB713B461946DB
:101DB8000748FFF79BF901224FF400510448FFF749
:101DC800CBFA00BF0837BD4680BD00BF00380240CF
:101DD8000008024090B593B000AF78603960FEF714
:101DE80059FAFFF7D1FF00224FF400513D48FFF7A1
:101DF800B3FAFEF711FA07F14403184600F0C2F8E7
:101E0800394B07F134040FCB07C4238002341B0C71
:101E18002370364A07F1280392E803001860043358
:101E2800197007F12D0300221A601A71304A07F160
:101E38001C0307CA03C31A802E4A07F1100392E84D
:101E4800030083E8030000233B8307F1440318469B
:101E580000F0A6F807F10C03184600F04FF807F158
:101E68000C03184600F058F800224FF400511D48A2
:101E7800FFF772FA40F29A20FEF7E0F901224FF4D8
:101E880000511848FFF768FA07F10C03184600F0EC
:101E980052F80146184B83FB01235A10CB17D21A6C
:101EA80013469B001344CA1A002A0CBF01230023BF
:101EB800DBB2002B08D007F11C0207F144031146DE
:101EC800184600F087F807E007F1280207F14403F5
:101ED8001146184600F07EF84FF4A770FEF7AEF9E9
:101EE800BDE700BF0008024008570008185700085F
:101EF80024570008305700086766666680B483B0C8
:101F080000AF78607B6805221A607B6818460C373A
:101F1800BD465DF8047B704780B483B000AF78603D
:101F28007B681B685A1C7B681A6000BF0C37BD466B
:101F38005DF8047B704780B483B000AF78607B683D
:101F48001B6818460C37BD465DF8047B70470000D7
:101F580080B483B000AF0346FB7197F9073003F0F4
:101F68001F03012202FA03F1054A97F907305B09BA
:101F780042F8231000BF0C37BD465DF8047B70475C
:101F880000E100E080B483B000AF78607B68002295
:101F98001A707B6818460C37BD465DF8047B70479D
:101FA80090B587B000AF7860094B07F108040FCBF4
:101FB80007C4238002341B0C237007F10803194659
:101FC800786800F007F800BF1C37BD4690BD00BF19
:101FD8003C57000880B582B000AF786039607B68F4
:101FE8001B7883F00103DBB2002B05D0786800F082
:101FF80041F87B6801221A703968786800F024F883
:1020080000BF0837BD4680BD80B582B000AF78609C
:102018000B46FB7080210B48FFF710FE0346002B90
:102028000CBF01230023DBB2002B00D0F2E7FB78C2
:102038009BB219460348FFF712FC00BF0837BD469C
:1020480080BD00BF0044004080B582B000AF78601A
:1020580039603B681B78002B08D03B685A1C3A60F3
:102068001B7819467868FFF7CFFFF2E700BF0837FB
:10207800BD4680BD80B588B000AF786001214FF4BF
:102088000030FEF787FD01210120FEF723FD0C2318
:10209800BB6102233B7702237B770023BB770123B5
:1020A800FB7707F1180319461848FFF71FF80722AE
:1020B80003211648FFF789F9072202211348FFF781
:1020C80084F901211248FFF74BFB4FF41643BB601C
:1020D8000023BB810023FB8100233B820023BB82BA
:1020E8000C237B8207F1080319460948FFF720FAF9
:1020F800012240F225510648FFF758FD2620FFF738
:1021080027FF00BF2037BD4680BD00BF000002404A
:10211800004400402DE9F04B59EC108B84B04D463B
:10212800002D0F46934619460D9C5DDB00230B706E
:10213800662C45D0462C5FD024F02003452B29D0AF
:1021480003AA02AB019200933A460C9B022149EC88
:10215800108B00F0D5FD672C064628D11BF0010F27
:102168002AD0F519404649460022002303F0E8F931
:1021780020BB039B9D4206D930215A1C039219703B
:10218800039B9D42F9D80E9A9B1B3046136004B0FE
:10219800BDE8F08B03A902AB0137019100933A46E1
:1021A8000C9B022149EC108B00F0AAFD0646472C37
:1021B800D7D11BF0010F2BD1039BE4E72B46E2E7B5
:1021C80003AA02AB019200933A460C9B032149EC07
:1021D800108B00F095FD0646C5193378302B1CD0BE
:1021E8000C9B1F683D44BDE709F100432D2510EE07
:1021F800108A99460D709BE703AA02AB01920093DF
:102208003A460C9B032149EC108B00F079FD0646F9
:10221800462C06EB0705E0D0A4E700220023404641
:10222800494603F08DF90028DAD10C9BC7F1010764
:102238001F603D4496E700BFF0B40029BABF494289
:102248002D232B23092982B00270437000F1020468
:102258002BDD0DF107061B4F324687FB0135CB17E7
:10226800C3EBA50303EB8305A1EB450101F13005A1
:10227800092B194602F8015DEFDC3031531EC9B253
:10228800B34202F8011C1AD20DF10606254601E0F8
:1022980013F8011F05F8011B9E42F9D102AB9A1AE7
:1022A8002244101A02B0F0BC704722463031302365
:1022B80002F8023B6170101A02B0F0BC7047224667
:1022C800F9E700BF676666662DE9F04F8BB00C46EC
:1022D80016461F46DDF85090054601F07DFCD0F803
:1022E80000B0584602F0E8FB2368059013F4807F9D
:1022F800D9F8003094F818804FF0000203F1070372
:10230800089223F0070370D093ED007B0833C9F8D7
:102318000030B0EE470AF0EE670A84ED127B02F057
:102328008FFA01286CD094ED120B02F089FA00287C
:102338007FD12368AC49AD4A23F004032360B8F188
:10234800470F98BF114603238146049123610097E4
:10235800334609AA2146284600F054FA01303FD0F6
:102368002368580540F10881B8F1650F40F2A18053
:1023780000220023D4E9120103F0E2F8002840F01B
:102388008481079B002B40F30182089AA36D9A422F
:10239800A8BF1A46002A914607DD13463146049A1B
:1023A8002846B84701301BD0A36D29EAE979C9EB63
:1023B8000302002A40F3208104F11A0A4FF00008B2
:1023C80005E0A36DC9EB0302424540F315810123E3
:1023D800524631462846B847013008F10108F0D185
:1023E8004FF0FF300BB0BDE8F08F93ED000B0833D2
:1023F800C9F8003084ED120B02F022FA012892D1BC
:1024080000220023D4E9120103F0A6F8002840F0C6
:10241800E68023687649774A23F004032360B8F1FD
:10242800470F98BF11460323049123614FF0000919
:102438008DE76168481C00F0A780B8F1670F00F0CD
:102448006D81B8F1470F00F09C812268CDF80480B7
:1024580042F4806200230DF1200E07A894ED120BC0
:10246800226003930090CDF808E00DF11B03284685
:10247800FFF750FE0490079BB8F1650F40F23581D5
:10248800B8F1660F00F06381089A9A4200F33E8122
:1024980022682361D20700F16781A3654FF0000924
:1024A8009DF81B30002B3FF452AF2D2384F84330A6
:1024B8004DE7089A012A62DD0123049A314628462D
:1024C800B84701308CD0059B5A4631462846B84754
:1024D800013085D000230022D4E9120103F030F83E
:1024E800089BA0B1012B1BDD04F11A0A4FF000086C
:1024F80003E0089B013B434512DD01235246314668
:102508002846B847013008F10108F2D168E7049A73
:10251800013B013231462846B84701303FF460AFED
:102528004B4604F1500231462846B84701303FF483
:1025380057AF2368E06813F0020F099B16D0C21A40
:10254800002A13DD04F119094FF0000804E0E068DF
:10255800099BC21A424509DD01234A4631462846ED
:10256800B847013008F10108F1D139E79842B8BFFE
:1025780018460BB0BDE8F08F049A2369D3E7DB0750
:102588009AD4049A0123C5E7062161602268CDF830
:10259800048042F4806200230DF1200E07A894ED18
:1025A800120B226003930090CDF808E00DF11B0395
:1025B8002846FFF7AFFDB8F1670F049003D0B8F1D4
:1025C800470F7FF458AF079BD91C03DB626893421F
:1025D80040F3CD80A8F102085FFA88F84CE72D2374
:1025E80084F8433015E700BF845800088058000875
:1025F8007C580008785800080799089A049891426E
:1026080000EB030836DB2368D80733D4049B134454
:10261800C8EB0309521A9145A8BF9146B9F1000FBA
:102628000ADD42464B4631462846B84701303FF45A
:10263800D7AE089B079A9A1A29EAE979C9EB0202E8
:10264800002A7FF776AF04F11A0A4FF0000807E076
:10265800089B079A9B1AC9EB030343457FF769AFA9
:102668000123524631462846B847013008F101088F
:10267800EED1B5E6059B5A4631462846B8470130A3
:102688003FF4AEAE089A0799C0E701235C4A314689
:102698002846B84701303FF4A3AE079A089B9A42F0
:1026A80003DB2368D9077FF545AF059B5A463146BA
:1026B8002846B84701303FF493AE089B012B7FF7BB
:1026C80038AF04F11A094FF0000804E0089B013BF9
:1026D80043457FF72EAF01234A4631462846B8477F
:1026E800013008F10108F1D17AE6013B194642466A
:1026F80004F150000793FFF79FFD089A8318012AF9
:102708008146236171DD01332361C9E6002BD4BF03
:10271800C3F1020101210A442261BEE6002932D038
:102728002268CDF8048042F4806200230DF1200E67
:1027380007A894ED120B226003930090CDF808E0EF
:102748000DF11B032846FFF7E5FC04903BE7002B3F
:1027580062680FDD23611AB92168C8077FF59DAE4D
:1027680001321A44226198E65A1C226195E64FF01C
:10277800670889E6002A40D12168C9073DD40122AB
:10278800CAE70029CCD101216160FFE601231C4A78
:1027980031462846B84701303FF422AE079B2BB993
:1027A800089B1BB92368DA077FF5C4AE059B5A4618
:1027B80031462846B84701303FF412AE079B5B42CA
:1027C800002B17DD04F11A094FF0000803E0079BFE
:1027D8005B4243450EDD01234A4631462846B84749
:1027E800013008F10108F2D1FAE52268D2077FF535
:1027F80057AE88E7049A089B95E602328CE700BF3B
:10280800885800082DE9F0470C4691460969A268E6
:10281800DDF820808A42B8BF0A46C9F8002094F83B
:10282800431006461F4611B10132C9F8002023683B
:1028380099065DD5D9F800200232C9F8002023682E
:1028480013F0060F19461DD1E1688A1A002AD8BF6D
:10285800194617DD04F1190A002505E0E368D9F8DF
:1028680000209B1AAB420CDD012352463946304604
:10287800C047013005F10105F0D14FF0FF30BDE848
:10288800F087216894F84330003318BF01238A0683
:102898000AD5E1185A1C302081F84300224494F8E4
:1028A800451082F84310023304F14302394630469A
:1028B800C0470130E1D0236803F00603042B29D078
:1028C800A36822699342C8BF4FF000092FDD9B1A05
:1028D80099441A34002501E04D4528D001232246A9
:1028E80039463046C047013005F10105F4D1C4E747
:1028F80013F0060F08D1E168D9F800208A1A002AD7
:10290800D8BF1946A6DCBDE794F84330003318BF9A
:102918000123C9E7D9F80000E168A3682269091A08
:10292800934221EAE179D2DCB9F1000FD1D100203C
:10293800BDE8F0872DE9F0430C46097E85B06E2985
:10294800064617460C98984604F1430C5AD01AD8F4
:10295800632900F0128100F2D68000295CD0582942
:1029680040F0F58084F8451022680368DFF860E2DB
:10297800150603F104011ED4550653BF1B680160F8
:102988001B88016019E0732900F0CF807ED86F2979
:1029980000F0E480702940F0DA80226842F02002DA
:1029A8002260782384F845300368DFF828E21506AA
:1029B80003F10401E0D51B680160D00744BF42F071
:1029C80020022260002B40F09080226822F0200232
:1029D80022601021002284F843206068A06000284B
:1029E800C0F28880226822F004022260002B62D1A3
:1029F800002840F08180654608296AD0C5EB0C03A1
:102A080023610CE023681A0640F1D58003686269E7
:102A1800191D01601B681A60002365462361CDF803
:102A280000803B4603AA21463046FFF7EBFE013003
:102A380021D02A46236939463046C04701301AD08A
:102A48002368E06813F0020F039B19D0C21A002A0A
:102A580016DD04F11909002504E0E068039BC21A99
:102A6800AA420DDD01234A4639463046C0470130A7
:102A780005F10105F1D14FF0FF3005B0BDE8F08355
:102A88009842B8BF184605B0BDE8F083752965D0EF
:102A980078295CD1226884E76168A1602D2000292B
:102AA800C3F1000384F8430021DB22F00402DFF8BD
:102AB80020E122600A216546B3FBF1F201FB1230E6
:102AC80013461EF8002005F8012D002BF4D1082923
:102AD80094D12368D90791D5626823699A428DDC1D
:102AE800302305F8013C013D88E7102172E7DFF843
:102AF800E0E00A21002BDED19EF8003084F8423055
:102B080004F1420578E7642901D069291FD12268B8
:102B18000368150603F104013AD51B680160002B10
:102B2800BADBDFF8ACE00A2157E703681A1D026038
:102B38001D68284601F0C0FF63682061984284BF81
:102B4800184623616060002384F8433067E7012357
:102B580084F84210236104F14205F4E723681A0659
:102B68001ED503681A1D1B680260227EDFF860E02C
:102B78006F2A14BF0A2108212CE703681A68191D57
:102B88000123016004F1420584F842202361DAE759
:102B9800550653BF1B680160B3F900300160BEE7FA
:102BA80013F0400F036803F1040215BF02601B68AD
:102BB8001B880260D9E713F0400F0368626903F1CC
:102BC800040101601B6814BF1A801A6024E700BF63
:102BD8008C580008A058000802690B69934200F35A
:102BE8008D802DE9F04F03F1FF3801F1140700F152
:102BF800140B57F828205BF828304FEA880483B074
:102C08000132B3FBF2F90BEB0403009407EB040A5F
:102C18000193B9F1000F39D00025BC46DE462B469A
:102C28005CF8046BDEF80020B4B209FB0455360CDE
:102C38002C0C09FB0644ADB25B1BA6B213FA82F357
:102C4800C6EB124606EB23469BB243EA0643E2452F
:102C58004EF8043B4FEA14454FEA2643E0D2009B66
:102C68005BF8033093B9019C231F9B450CD254F8A1
:102C7800043C4BB9A4F1080302E01A68043B1AB9F2
:102C88009B4508F1FF38F8D3C0F81080044601F0DE
:102C9800D7FA00282EDB09F101095D46002357F811
:102CA800041B28688AB29A1A090C12FA80F2C1EB3E
:102CB800104303EB224391B241EA0341BA4545F878
:102CC800041B4FEA2343EAD25BF828200BEB880366
:102CD80082B91A1F93450BD253F8042C42B9083B0A
:102CE80002E01A68043B1AB99B4508F1FF38F8D38B
:102CF800C4F81080484603B0BDE8F08F0020704744
:102D08002DE9F04F57EC106B9BB0446A249D00915D
:102D180081469046039310EE10AABB46002C00F0A3
:102D2800DB82216851B162684A60012393408B605D
:102D380001F040F8D9F8243000221A60BBF1000FE6
:102D48005E4634DB00232B60A34B1A463340934284
:102D580016D0002200235046594602F0F1FB544693
:102D68005D46074648B3039A01231360259B002B51
:102D780000F0C0809948186001381BB0BDE8F08F9A
:102D8800039A42F20F731360BAF1000F00F09D80AE
:102D98009348259B002BF0D0C378002B00F0AC8023
:102DA80000F10803259A13601BB0BDE8F08F0123DA
:102DB8002BF000462B60B346C6E718AA19A945ECC4
:102DC800104B484601F07AFB330D0A9040F086809C
:102DD800189C199D254405F23243202B40F3A88204
:102DE800C3F1400305F212409E402AFA00F0304336
:102DF80002F06EF80123013DA1F1F8710F93002252
:102E0800784B01F0DBFE6EA3D3E9002302F0E4F86F
:102E18006DA3D3E9002301F0D3FE064628460F46EA
:102E280002F068F86AA3D3E9002302F0D5F8024655
:102E38000B463046394601F0C3FE06460F4602F0FF
:102E4800BBFB0022049000233046394602F084FB85
:102E5800002840F05982049E162E00F23A82624BF6
:102E680003EBC603D3E9000152465B4602F098FB28
:102E7800002800F06582731E049300230D93651BE0
:102E88006B1E069300F13B8200230793049B002BE3
:102E9800C0F22C82069A0C9311461944002306911D
:102EA8000593009B092B29D8052B40F35A86043B30
:102EB80000930026009B023B032B00F23C86DFE8D0
:102EC80013F04703410254038004454B474AC6F3B5
:102ED8001300002814BF184610465AE7CBF3130214
:102EE80042F07F515046A3F2FF350F9741F440114D
:102EF800189C84E73E4840E7C31C53E7D9F82450A0
:102F080000246C602146484600F020FFD9F82430A0
:102F180028601B6809934FF0FF320123A0460892EE
:102F280000940E920B93199B002BC0F2CF80049A49
:102F38000E2A00F3CB802C4B03EBC20393ED007BEE
:102F4800B8F1000F8DED007BC0F21A8356465F463C
:102F5800DDE900AB304652465B46394602F084F95B
:102F680002F02AFB044601F0C5FF52465B4602F018
:102F780033F80B4602463946304601F01FFE099DDC
:102F880004F130032B70089B012B06460F4605F110
:102F9800010560D00022174B02F01EF80022002322
:102FA80006460F4602F0CCFA00287CD1CDF81490E2
:102FB800DDF820A0DDF824B0DDE9008927E000BFB6
:102FC80061436F63A787D23FB3C8608B288AC63F27
:102FD800FB799F501344D33F0000F07F89580008C5
:102FE800C05800080000F83F60570008B4580008AF
:102FF800885800080000244001F0EEFF002200235A
:1030080006460F4602F09CFA002840F0DD8342464F
:103018004B463046394602F027F902F0CDFA04460D
:1030280001F068FF42464B4601F0D6FF02460B46C8
:103038003046394601F0C2FD04F1300E05F801EBC7
:10304800CBEB050ED64506460F464FF00002BB4BAC
:10305800D2D1DDF8149032463B463046394601F06D
:10306800AFFD06460F4602460B46DDE9000102F0B9
:1030780073FA40B932463B46DDE9000102F060FAD6
:1030880088B1E3070FD515F8014C099A6B1E04E0C7
:103098009A4200F03B8413F8014D392C03F10105E5
:1030A800F6D001341C700A99484600F083FE0022CD
:1030B800049B2A70039A01331360259B002B00F0B0
:1030C800B08309981D601BB0BDE8F08F0B9A002AE9
:1030D80000F02A81009A012A40F37482089B059A1D
:1030E8005F1EBA42C0F2A083D71B089B002BC0F218
:1030F8009784079D089B079A1A440792069A01210C
:103108001A444846069200F049FF064665B10699FA
:1031180000290B4608DDA942079AA8BF2B46D21AF8
:10312800ED1ACB1A07920693059B002B40F32283D6
:103138000B9A002A00F01D82002F00F01A823146F7
:103148003A46484600F0CCFF0A9A014606464846E9
:1031580000F02EFF0A990446484600F02BFE059B16
:10316800DB1B059340F004820121484600F016FF5E
:103178000C9B0590002B00F0378201461A46484602
:1031880000F0AEFF009B0590012B00F3CD82BAF151
:10319800000F40F0C982CBF31303002B40F04D849D
:1031A8002BF000473F0D3F0537B1079B01330793CD
:1031B800069B0133069301270C9B0120002B40F04E
:1031C800B482069A104410F01F0000F00482C0F187
:1031D8002003042B40F3C884079BC0F11C00034460
:1031E80007931346034405440693079B002B05DD0C
:1031F80021461A46484600F0CFFF0446069B002B9E
:1032080005DD1A460599484600F0C6FF05900D9B56
:10321800002B40F09482089B002B40F3AD820B9B5F
:10322800002B40F00382DDF824B0089FDDF81480FD
:103238005D4602E000F0DAFD044641462046FFF70D
:10324800CBFC00F1300A05F801ABCBEB0503BB4220
:103258004FF00A024FF0000321464846EADB099B7B
:10326800089A012AACBF9B1801331D464FF0000B8A
:1032780021460122484600F08FFF05990A9000F088
:10328800DFFF002840F3068315F8012C09996B1E0F
:1032980004E08B4200F08E8213F8012D392A03F1E5
:1032A8000105F6D001321A700599484600F082FDF2
:1032B800002E3FF4F8AEBBF1000F05D0B34503D0A4
:1032C8005946484600F076FD3146484600F072FD02
:1032D800E9E601230D93D2E5102000F08DFCC9F832
:1032E8002400446084600460C46027E5079A049B56
:1032F800D21A5B420593002307920C93D1E55B42F7
:10330800079300230693C1E5049801F0F3FD0246F4
:103318000B463046394602F013F900287FF49BAD7E
:10332800049B013B049396E5059F079D0B9EEDE6E4
:10333800C3F120060AFA06F05AE500BF000024404F
:103348000D909CE500230B93049B43440E9301339B
:10335800002B089340F37782089D2A46D9F8244029
:103368000021172A616008D904235B0003F11400C7
:10337800904201F10101F8D96160484600F0E6FC8D
:10338800D9F8243020601B6809930E2D3FF6CBAD89
:10339800002E3FF4C8AD04990029CDE910AB40F3E5
:1033A8008C82954B01F00F020E1103EBC203F0065D
:1033B800D3E9004540F14082904B50465946D3E945
:1033C800082301F051FFCDE9120106F00F064FF076
:1033D800030A86B1894FF10709D520462946D7E95E
:1033E800002301F0F9FD0AF1010A04460D467610A2
:1033F80007F10807EFD122462B46DDE9120101F05B
:1034080033FF06460F460D9B43B100227C4B3046E6
:10341800394602F0A1F8002840F01983504601F01F
:1034280069FD32463B4601F0D7FD764B002201F09C
:10343800C7FB089B0446A1F15075002B00F0D5810D
:10344800049B1693089B12930B9B002B00F0908211
:10345800129A694B6C4903EBC20353E9022300201B
:1034680001F002FF22462B4601F0A8FB82468B465C
:103478003046394602F0A0F8044601F03BFD02460A
:103488000B463046394601F099FB3034099DE4B2C9
:1034980006460F462C7002460B46504659460135E3
:1034A80002F07EF8002850D132463B4600205449AD
:1034B80001F084FB02460B465046594602F070F86C
:1034C800002840F00583129A012A40F3F281129BEA
:1034D800099ACDF84880134498460DE000204849E1
:1034E80001F06CFB52465B4602F036F8002840F0CB
:1034F800EF82454500F0DB81504659460022434B98
:1035080001F06AFD0022414B82468B46304639461F
:1035180001F062FD0F46064602F04EF8044601F03F
:10352800E9FC02460B463046394601F047FB303489
:10353800E4B252465B4605F8014B06460F4602F0D8
:103548000BF832463B460028C8D0169B0493AAE5E0
:1035580000230B93B8F1000F40F37B8142464546A8
:10356800CDF83880CDF82080F8E601230B93F1E7F9
:103578000A94059A0A99484600F0B2FD0446F3E514
:10358800089B002B3FF7E2AC40F047810022204B1C
:10359800DDE9000101F020FD5B46524601F0F4FF31
:1035A800089B05931E46002800F0FC806FEA08037C
:1035B800099D04930599484600F0FCFB002E3FF452
:1035C80072AD81E60F9A002A00F0308203F233438D
:1035D800059F079D8FE51C20079B03440793069BC7
:1035E80003440544069300E6009B012B40F39E82AA
:1035F8000C9F0120E5E500BF6057000850580008FF
:103608000000F03F00001C400000E03F00002440A4
:1036180000001440314600230A22484600F0E6FB29
:103628000E9B002B064640F37C820893002D05DD97
:1036380031462A46484600F0AFFD0646002F40F0C6
:103648006F81B046089B099A013BD31808930AF08A
:1036580001030A931746DDF814B020465946FFF7D0
:10366800BBFA31460546204600F0EAFD4246594677
:103678008246484600F006FEC268834605F13003DC
:10368800002A49D101462046079300F0D9FD594642
:103698000690484600F08EFB069A079B2AB90099C7
:1036A80019B90A99002900F01782BAF1000FC0F27F
:1036B800D58005D1009919B90A99002900F0CE8062
:1036C800002A00F34181089A3B7007F1010A9742EA
:1036D800554600F04581214600230A22484600F05D
:1036E80085FB4645044631464FF000034FF00A0279
:1036F80048460BD000F07AFB4146064600230A22D2
:10370800484600F073FB57468046A4E700F06EFB7E
:103718005746064680469EE701464846069300F00F
:1037280049FB0122069BC0E70027059A136902EBB3
:103738008303186900F0E4FBC0F1200041E5059916
:10374800204600F07DFD0028BFF665AD2146049CAB
:103758000023013C0A224846049400F047FB0B9BD7
:103768000446002B7FF456AF0E9B002B40F3D1810B
:10377800089358E50A9CF7E4009B022B7FF74FADAE
:10378800089B002B40F0618105990522484600F00E
:103798002DFB01460590204600F052FD00280A94B2
:1037A8007FF704AF049A09993123013204920B7010
:1037B8004D1CFFE6049A01320492099A31231370D2
:1037C80072E501230B93BFE5DDF814906BE45046D6
:1037D80001F090FB32463B4601F0FEFB0022C34B52
:1037E80001F0EEF90446A1F1507530463946002241
:1037F800BF4B01F0E3F922462B4606460F4601F07F
:10380800CFFE002840F0B080224605F10043304644
:10381800394601F0A1FE00284BD0002305931E462F
:10382800C4E60998FFF7A9BA059B0C9A0597FB1AF5
:103838001A440C92002758E49DED107B4FF0020AC1
:103848008DED127BC5E51D46D9F824400021616045
:1038580093E501250E950895A846F5E7002A9A46AE
:1038680011DD21460122484600F096FC05990446E0
:1038780000F0E6FC002840F34581BAF1390F00F06A
:103888000B8105F1310AB34687F800A07D1C464636
:103898000A9409E504D11AF0010F01D0F4E41546A1
:1038A80015F8013C302B05F1FF32F8D0FCE4DDF8C7
:1038B8004880DDE910ABFFF736BB049B5C42002C67
:1038C80000F0BE808B4B04F00F0203EBC203D3E978
:1038D8000023DDE9100101F07FFB241106460F46A5
:1038E80000F01C81844D4FF0020AE20709D53046EA
:1038F8003946D5E9002301F06FFB0AF1010A0646B3
:103908000F46641005F10805EFD17CE509993022CE
:103918000A70049A15F8014C01320492FFF7C1BBF2
:103928007168484600F012FA33699A1C05469200FD
:1039380006F10C010C3000F06FF9294601224846C7
:1039480000F02AFC80467DE6392B00F0A58003F1C3
:10395800010AB34687F800A07D1C46460A94A3E4F2
:10396800B3469A46464683E4002305931E4619E764
:10397800129B60495A1E01EBC2012B461792D1E9EE
:103988000001224601F028FBCDE9140139463046F2
:1039980001F012FE044601F0ADFA0B460246394624
:1039A800304601F00BF9129B0F4609993034012B70
:1039B80006460C7001F1010520D0129B099A1344A8
:1039C8009A46AB4600224D4B3046394601F004FB7F
:1039D8000F46064601F0F0FD044601F08BFA30343C
:1039E80002460B463046394601F0E8F80BF8014B21
:1039F800DA4506460F46E5D1179B1D440022404B89
:103A0800DDE9140101F0DCF832463B4601F0A4FD83
:103A1800002849D0169B049315F8014CFFF735BBD5
:103A2800079B089A9D1A0023FFF765BB189B059F03
:103A3800079DC3F13603FFF75EBB0027FFF7BCBB4A
:103A4800DDE910674FF0020ADDE40A94AEE5089B51
:103A5800002B3FF4BCAE0E9B002B7FF72AAF002251
:103A6800264B3046394601F0B7FA06460F460AF1AA
:103A7800010001F03FFA32463B4601F0ADFA002260
:103A88001A4B01F09DF8049A0E9B1293013A0446D2
:103A9800A1F150751692D7E43922B3460A944646E6
:103AA8003A707D1CFFF7F2BBDDE9142300201449AE
:103AB80001F084F832463B4601F072FD08B9F8E699
:103AC800154615F8013C302B05F1FF32F8D03CE5DE
:103AD800169B0493FFF7D9BA392BD3469A46DBD005
:103AE800BBF1000F3FF7CDAECDE600BF00001C4094
:103AF8000000144060570008505800080000244097
:103B08000000E03F7FF4BFAE1AF0010F3FF4BBAEF8
:103B1800B3E6009B022B2CDC0E9B29E64FF0020A31
:103B280071E4009B022B24DC0E9B7EE5BAF1000FAA
:103B38003FF431AB5CE5D9F8245000246C60214691
:103B4800484600F003F9D9F8243028601B68099327
:103B58004FF0FF3201230892A0460E920B93FFF715
:103B6800E2B90126FFF7A6B93FF43FABC0F13C002C
:103B780032E50E9B089303E6B2B110B50B49104627
:103B8800144600F08BFE08B9094810BD08492046C4
:103B980000F084FE0028F7D02046064900F07EFE9B
:103BA8000028F1D0002010BD01487047C85800080F
:103BB800C45800089C58000800487047240000209A
:103BC800014B186A704700BF240000200048704766
:103BD8004800002000207047004870476800002017
:103BE800024B0A4601461868FFF7C6BFA00000202E
:103BF8000048704768000020024B0146186800F032
:103C0800AFBD00BFA0000020024B0146186800F0BD
:103C180061BD00BFA0000020844641EA000313F004
:103C280003036DD1403A41D351F8043B40F8043BBB
:103C380051F8043B40F8043B51F8043B40F8043B7E
:103C480051F8043B40F8043B51F8043B40F8043B6E
:103C580051F8043B40F8043B51F8043B40F8043B5E
:103C680051F8043B40F8043B51F8043B40F8043B4E
:103C780051F8043B40F8043B51F8043B40F8043B3E
:103C880051F8043B40F8043B51F8043B40F8043B2E
:103C980051F8043B40F8043B51F8043B40F8043B1E
:103CA80051F8043B40F8043B403ABDD2303211D3BE
:103CB80051F8043B40F8043B51F8043B40F8043BFE
:103CC80051F8043B40F8043B51F8043B40F8043BEE
:103CD800103AEDD20C3205D351F8043B40F8043BBE
:103CE800043AF9D2043208D0D2071CBF11F8013BBC
:103CF80000F8013B01D30B8803806046704700BF82
:103D0800082A13D38B078DD010F003038AD0C3F190
:103D18000403D21ADB071CBF11F8013B00F8013B72
:103D280080D331F8023B20F8023B7BE7043AD9D331
:103D3800013A11F8013B00F8013BF9D20B78037006
:103D48004B7843708B7883706046704770B5446ACF
:103D580006460D465CB1E36893B153F82500D8B127
:103D6800026843F8252000230361C36070BD10205A
:103D7800FFF742FF7062446084600460C4600446D8
:103D880021220421304600F097FC736AE060DB686A
:103D9800002BE2D1002070BD012101FA05F4621D5B
:103DA8003046920000F088FC0028F3D0456084601B
:103DB800D9E700BF30B5456A83B0044655B139B17B
:103DC800636A4A68DB6853F82200086043F82210E7
:103DD80003B030BD10200191FFF70EFF019960621A
:103DE800456085600560C560E9E700BFF0B50C690E
:103DF80083B00D46064601F1140E0027DEF80000D8
:103E080081B202FB01310B0C000C02FB003389B2BA
:103E1800013701EB0341BC424EF8041B4FEA134340
:103E2800ECDC3BB1AA68944207DA05EB8402013462
:103E380053612C61284603B0F0BD696801930131D4
:103E48003046FFF783FF2A69023205F10C01074665
:103E580092000C30FFF7E0FE29463046FFF7AAFF34
:103E68003D46019BE1E700BF2DE9F843234C089D3F
:103E78001F46083384FB034EDB17C3EB6E0EBEF1FF
:103E8800010F06460C46904635DD012300215B00F4
:103E98009E4501F10101FADC3046FFF757FF012387
:103EA800B8F1090F4561036121DD04F109094D46A7
:103EB800444415F8013B0146303B0A223046FFF7DF
:103EC80095FFA542F5D109EB0804083C47450CDDF0
:103ED800C8EB0707274414F8013B0146303B0A2288
:103EE8003046FFF783FFA742F5D1BDE8F8830A34CF
:103EF8004FF00908EAE70021CEE700BF398EE33822
:103F0800030C1B04B3B90004102310F07F4F04BF47
:103F18000002083310F0704F04BF0001043310F0A2
:103F2800404F04BF80000233002807DB420003D45F
:103F3800202070470023E8E7581C70471846704750
:103F4800036813F0070207D0D90720D49A0720D4B2
:103F58009B0803600220704799B209B91B0C102214
:103F680013F0FF0F04BF1B0A0832190704BF1B090F
:103F78000432990704BF9B080232D90704D45B08AE
:103F880001D120207047013203601046704700209D
:103F980070475B0803600120704700BF10B50C46EE
:103FA8000121FFF7D3FE01224461026110BD00BF69
:103FB8002DE9F04F0D691769BD4283B00C461646CE
:103FC80004DA2A4634463D460E461746A368616819
:103FD80005EB07089845C8BF0131FFF7B7FE00F1A8
:103FE800140C0CEB8809CC45009005D263460021DF
:103FF80043F8041B9945FBD806F1140202EB870A23
:1040080004F11403524503EB850E54D2CDF8049005
:10401800994652F8043B1FFA83FBBBF1000F20D0EE
:1040280000204F466646054600E01E4657F8044BFA
:104038003068A1B283B20BFB0131240C000C4B1980
:104048000BFB040000EB134099B2334641EA0041F0
:10405800BE454FEA104543F8041BE6D8756052F890
:10406800043C5FEA134B20D0DCF800306746184662
:104078004D46002100E037462C88000C0BFB04005D
:1040880001449CB23E4644EA014346F8043B786842
:1040980055F8044B83B2240C0BFB043404EB114396
:1040A800AE454FEA1341E6D87B6092450CF1040C0B
:1040B800AFD8DDF80490B8F1000F0BDD59F8043CD7
:1040C800A9F104091BB105E059F8043D13B9B8F189
:1040D8000108F9D10098C0F8108003B0BDE8F08F4E
:1040E8002DE9F04312F0030383B0144607462DD19F
:1040F8000E46A4101CD07B6A8BB39D68002D39D066
:10410800E3074FF0000906D4641011D0286898B16D
:104118000546E307F8D531462A463846FFF748FFF3
:10412800314680463846FFF745FE64104646EDD1D5
:10413800304603B0BDE8F0832A4629463846FFF7E3
:1041480037FF2860C0F800900546E2E75A1E114D77
:10415800002355F82220FFF749FE0646C9E710203C
:104168000193FFF749FD019B786243608360036018
:10417800C3600346012138460193FFF7E7FD019B21
:104188000546012140F271200022686129619D6085
:104198002A60B5E7505700082DE9F04792460A69AA
:1041A8008B684FEA6A1404EB020909F101059D4284
:1041B8000E468046496804DD5B009D4201F101011D
:1041C800FADC4046FFF7C2FD002C074600F1140256
:1041D80033DD02EB8403002142F8041B9A42FBD131
:1041E800306906F114011AF01F0A01EB800E1CD089
:1041F800CAF120020024086800FA0AF004431846AD
:1042080043F8044B51F8044B8E4524FA02F4F2D8D3
:1042180044600CB109F10205013D40463D6131465B
:10422800FFF7C8FD3846BDE8F087043B51F8042B7A
:1042380043F8042F8E45F9D8EEE71346D0E700BFC0
:1042480002690B69D21A13D19B0014301431194436
:1042580010B4034401E098420CD253F8044D51F8CD
:10426800042D9442F7D009D301205DF8044B704720
:104278001046704700205DF8044B70474FF0FF3040
:10428800F3E700BF2DE9F8430B690F4611695B1A84
:10429800002B904617D1890007F1140208F1140584
:1042A8005318294401E09A425ED253F8046D51F83C
:1042B800044DA642F7D060D23B46144647464FF01D
:1042C8000109984606E05DDB07F1140502F11404C4
:1042D8004FF000097968FFF739FDD8F810303E69CA
:1042E800C0F80C9004EB830CA64605EB860700F19A
:1042F800140400235EF8041B55F8048B8AB213FAE1
:1043080088F3090C9A1AC1EB184303EB224392B2C3
:1043180042EA0342F44544F8042B4FEA2343E9D820
:10432800AF4217D9A446294651F804EB13FA8EF286
:10433800131403EB1E4392B242EA03428F424CF835
:10434800042B4FEA2343EFD8ED433D4425F0030502
:1043580004352C44043C22B954F8043D013E002B9A
:10436800FAD00661BDE8F8830021FFF7EFFC0122CF
:10437800002302614361BDE8F8832C464FF0000931
:104388001546A7E73B4607F1140408F1140547460C
:104398004FF0010998469DE7134B10EE902A1A40FA
:1043A800A2F15073002B04DD0020194641EC100BDC
:1043B80070475B421B15132B0DDD143B1E2BDDBF15
:1043C800C3F11F03012202FA03F301230021184657
:1043D80041EC100B70474FF40022002042FA03F121
:1043E80041EC100B704700BF0000F07F2DE9F04151
:1043F800066900F1140808EB860656F8047C38466E
:10440800FFF77EFDC0F120030A280B60A6F1040324
:1044180018DC9845C0F10B0238BF56F8083C27FA5B
:1044280002F100F1150041F07F5534BFD34000235D
:1044380007FA00F045F4401540EA030445EC104B38
:10444800BDE8F081984520D2B0F10B0356F8082C4E
:104458001ED007FA03F040F07F57C3F1200EA6F1F3
:10446800080147F4401722FA0EF0884547EA00058C
:1044780020D256F80C1C02FA03F021FA0EF3184366
:10448800044645EC104BBDE8F0810B3809D10246D3
:1044980047F07F5545F44015144645EC104BBDE8F0
:1044A800F08107FA00F040F07F55002045F44015F0
:1044B8000446E6E702FA03F00446E2E72DE9F04392
:1044C80057EC106B83B0884601213C46C7F30A5568
:1044D8001746FFF73BFCC4F3130481460DB144F4BF
:1044E800801401941EB302A840F8086DFFF728FD58
:1044F800002834D19DE80C00C9F81420002B0CBF0B
:1045080001210221C9F81830C9F81010DDB909EBEA
:104518008103A0F23240C8F800001869FFF7F0FCE8
:10452800C0EB41103860484603B0BDE8F08301A8ED
:10453800FFF706FD019BC9F8143001212030C9F8A6
:104548001010002DE3D0A5F233450544C0F1350025
:10455800C8F800503860484603B0BDE8F0839DE8CD
:104568000C00C0F1200103FA01F10A43C340019392
:10457800C9F81420C2E700BF2DE9F04383B088468C
:1045880069468146FFF732FF404601A955EC104BBA
:10459800FFF72CFF9DE80A00D9F81020D8F8100082
:1045A800C91A101A01EB4013002B57EC106B0DDDE4
:1045B80005EB03510D4632463B462046294600F09E
:1045C80053FE41EC100B03B0BDE8F083A7EB035991
:1045D80010EE106A4F46EEE7172810B504460ADDBC
:1045E800084900200022084B00F0F6FC013CF9D1F4
:1045F80041EC100B10BD054B03EBC00494ED040B0C
:1046080010BD00BF0000F03F0000244050570008D4
:1046180070B4146902F1140301394E1103EB8404D8
:104628000136A34200EB86060CD2011F53F8045B47
:1046380041F8045F9C42F9D8A31A153B23F0030301
:1046480004331844864204D9002340F8043B8642C8
:10465800FBD870BC704700BF03694A11934210B47D
:1046680000F1140410DA04EB83039C4221D253F8BE
:10467800040C043B18B115E053F8042D92B99C4280
:10468800FAD35DF8044B704710DD11F01F010DD00F
:1046980054F8220020FA01F303FA01F1884204EBEE
:1046A8008203E2D001205DF8044B704704EB8203DB
:1046B800DBE70020E5E700BF38B502FB01F421463F
:1046C80000F04EF8054618B12246002100F024FA01
:1046D800284638BD30B481B151F8043C0439002B68
:1046E800B8BFC9181D4B1A682AB18A420AD9086886
:1046F8000C18A24225D04A60196030BC70478B4222
:1047080003D81A465368002BF9D1146815198D423D
:104718000CD007D808680C189C4218D04B6030BCE5
:10472800516070470C23036030BC704709680C4423
:10473800111999421460E0D10ACB0C4453601460FB
:10474800DBE7146852684A6020440860D4E71C68B4
:104758005B684B60204408605160CEE70801002088
:1047680070B5CD1C25F0030508350C2D38BF0C2578
:10477800002D06463BDBA94239D827490A6852B1C1
:1047880013685B1B04D436E023685B1B1AD52246EA
:104798005468002CF8D149681F4C002936D02946A6
:1047A800304600F03BF8431C21D0C41C24F003041D
:1047B800A04205D0211A304600F030F8013016D05A
:1047C800256004E00B2B0DD923601C44256004F1FF
:1047D8000B0020F00700231DC31A02D05A42E250F2
:1047E80070BD70BD94420ED063685360EFE70C2330
:1047F8003360002070BD0B2B03D8536814460B6040
:10480800E5E71446E0E713461446F8E7304600F0BB
:1048180005F86060C3E700BF0801002038B5074C01
:10482800002305460846236000F020FF431C00D003
:1048380038BD2368002BFBD02B6038BD1801002041
:1048480053EC102B33F0004110B408D01148A3F5F5
:104858008014844208D804205DF8044B70471AB9C4
:1048680002205DF8044B704703F1FF43094803F544
:10487800E0038342EFD9B1F5801F01D20320EBE7B3
:10488800054B994201D00020E6E7B2FA82F04009D0
:10489800E2E700BFFFFFDF7F0000F07F40EA010C86
:1048A8001CF0070F23D1BDF1100DCDE90245CDE96C
:1048B80000676FF000064FF0000700BFF0E8022322
:1048C800F1E80245A24282FA46FCA7FA86FC08BF34
:1048D800BCF1000F40F0D780AB4283FA46FCA7FA40
:1048E80086FC08BFBCF1000F40F0CA80E6E710F074
:1048F800030C21D020F0030050F8042B5FEACC7C95
:1049080008D00FD211F801CB5FFA92F3B3EB0C0C7D
:1049180010D17BB111F801CB5FFAA2F3B3EB0C0C09
:1049280008D13BB111F801CB5FFAB2F3B3EB0C0C31
:1049380000D10BB960467047BDF1100DCDE90245B5
:10494800CDE900676FF000064FF0000711F0030C87
:104958002DD110F0040F0DD050F8042B51F8044B52
:10496800A24282FA46FCA7FA86FC08BFBCF1000FF7
:1049780040F0898011F0040F9FD051F8045B00BF0C
:10498800F0E80223AA4282FA46FCA7FA86FC08BF8E
:10499800BCF1000F71D1F1E80245A34283FA46FC4D
:1049A800A7FA86FC08BFBCF1000F63D1E8E721F045
:1049B8000301BCF1020F1ED03BDA51F8045B00BFC3
:1049C80050F8043B4FEA152583FA46FCA7FA86FC03
:1049D800B7EB0C2F03EA162208BFAA424DD151F8B3
:1049E800045BBCF1000F82EA03034FEA056208BFCB
:1049F80093423CD1E4E751F8045B00BF50F8043B14
:104A08004FEA154583FA46FCA7FA86FCB7EB0C4F2C
:104A180003EA164208BFAA422FD151F8045BBCF141
:104A2800000F82EA03034FEA054208BF93421ED1F2
:104A3800E4E751F8045B00BF50F8043B4FEA156502
:104A480083FA46FCA7FA86FCB7EB0C6F03EA1662FA
:104A580008BFAA4211D151F8045BBCF1000F82EAE9
:104A680003034FEA052208BF934200D1E4E719BACD
:104A780012BA0AE019BA22BA07E011BA2ABA04E04F
:104A880019BA2ABA01E011BA22BA9CFA8CF0DDE907
:104A98000067DDE902451DF1100D38B1B0FA80F06C
:104AA800C0F1180021FA00F122FA00F20120914227
:104AB80098BF8041704700BF20F0030110F0030049
:104AC800C0F1000051F8043B00F1040C4FEACC0C93
:104AD8006FF000021CBF22FA0CF213434FF0010CD6
:104AE8004CEA0C2C4CEA0C4CA3EB0C0222EA030215
:104AF80012EACC1204BF51F8043B0430F4D013F08E
:104B0800FF0F1FBF013013F47F4F013013F47F0FE5
:104B180018BF0130704700BF70B4840746D0541ED8
:104B2800002A41D0CDB2034602E0621EE4B3144627
:104B380003F8015B9A07F8D1032C2ED9CDB245EAC8
:104B480005250F2C45EA054519D903F1100226461B
:104B5800103E0F2E42F8105C42F80C5C42F8085CDC
:104B680042F8045C02F11002F2D8A4F1100222F01B
:104B78000F0204F00F041032032C13440DD91E4603
:104B88002246043A032A46F8045BFAD8221F22F088
:104B980003020432134404F003042CB1C9B21C44C8
:104BA80003F8011BA342FBD170BC704714460346AF
:104BB800C2E700BF021121E2000000EA023123E24D
:104BC80030402DE98140A0E18350A0E1050034E1A7
:104BD8000200300100C0941102C09511C4CAF0113E
:104BE800C5CAF0118C00000AA44AA0E1A55A74E0D5
:104BF800005065B2060000DA054084E0022020E09B
:104C0800033021E0000022E0011023E0022020E030
:104C1800033021E0360055E33040BD881EFF2F8168
:104C2800020111E30116A0E101C6A0E321168CE1FF
:104C38000100000A000070E20010E1E2020113E343
:104C48000336A0E123368CE10100000A002072E25D
:104C58000030E3E2050034E16900000A014044E263
:104C680020E075E2050000BA12CEA0E1320590E01E
:104C78000010A1E2130E90E05315B1E0060000EA1F
:104C8800205045E220E08EE2010052E313CEA0E17D
:104C980002C08C23530590E0C31FB1E0025101E22A
:104CA8000200005A00C07CE20000F0E20010E1E2DD
:104CB800010651E30F00003A020651E30600003AEC
:104CC800A110B0E16000B0E16CC0A0E1014084E255
:104CD800842AA0E1010572E36B00002A02015CE36B
:104CE800A0C0B0010000B0E2041AA1E0051081E103
:104CF8003040BDE81EFF2FE18CC0B0E10000B0E0FD
:104D08000110A1E0010611E3014044E2F2FFFF1A9D
:104D1800000031E31430A0133430A0030010A001C8
:104D28000000A0030120A0E1010852E32228A021ED
:104D380010304322010C52E32224A02108304322E0
:104D4800100052E32222A02104304322040052E33F
:104D580002304322A2304330A23143E0202053E204
:104D6800070000AA0C2092E2040000DA14C082E2D4
:104D78000C2062E2110CA0E13112A0E1040000EA6B
:104D8800142082E220C062D21112A0E1301C81D12D
:104D98001002A0D1034054E0041A81A0051081A19B
:104DA8003040BDA81EFF2FA10440E0E11F4054E29F
:104DB8000F0000AA0C4094E2060000CA144084E2E6
:104DC800202064E23004A0E1110280E1311485E181
:104DD8003040BDE81EFF2FE10C4064E2202064E271
:104DE8003002A0E1110480E10510A0E13040BDE8E7
:104DF8001EFF2FE13104A0E10510A0E13040BDE81D
:104E08001EFF2FE1000034E3013623E201162102E0
:104E180001408402015045128FFFFFEAC4CAF0E145
:104E2800C5CAF0111D00000A050034E10200300176
:104E38000400000A00C094E10310A0010200A001D0
:104E48003040BDE81EFF2FE1030031E10010A01340
:104E58000000A0133040BD181EFF2F11A4CAB0E1F6
:104E68000400001A8000B0E10110B1E002118123B2
:104E78003040BDE81EFF2FE1014594E20116813262
:104E88003040BD381EFF2F31025101E27F1485E307
:104E98000F1681E30000A0E33040BDE81EFF2FE1BC
:104EA800C4CAF0E10310A0110200A011C5CAF001A4
:104EB8000130A0110020A011014690E10356920193
:104EC80003003101021781133040BDE81EFF2FE1B6
:104ED800000030E30010A0031EFF2F0130402DE931
:104EE800014BA0E3324084E20050A0E30010A0E3AD
:104EF80086FFFFEA000030E30010A0031EFF2F0129
:104F080030402DE9014BA0E3324084E2025110E227
:104F1800000060420010A0E37CFFFFEA8020B0E1BF
:104F2800C211A0E16110A0E1020EA0E1FF3412124B
:104F3800FF0433130E1321121EFF2F11FF24D2E397
:104F48001EFF2F01FF0433E3021781031EFF2F0109
:104F580030402DE90E4DA0E3025101E20211C1E3F8
:104F68006AFFFFEA012090E11EFF2F0130402DE982
:104F78000050A0E3060000EA012090E11EFF2F0187
:104F880030402DE9025111E20100005A000070E2A0
:104F98000010E1E2014BA0E3324084E221CBB0E112
:104FA80042FFFF0A0320A0E3ACC1B0E10320821254
:104FB800ACC1B0E103208212AC2182E0203062E271
:104FC80010C3A0E13002A0E1110380E13112A0E199
:104FD800024084E035FFFFEA70402DE9FFC0A0E3FE
:104FE80007CC8CE3214A1CE0235A1C100C00341116
:104FF8000C0035117500000B054084E0036021E0CA
:105008008C1AC1E18C3AC3E1015690E10356921122
:10501800011681E3013683E31D00000A90C28EE089
:105028000050A0E391E2A5E0022106E290E3A5E0AA
:105038000060A0E39153A6E000003CE301E08E137A
:10504800FF4044E2020C56E3034CC4E20200002A8B
:105058008EE0B0E10550B5E00660A6E0861582E175
:10506800A51A81E18505A0E1AE0A80E18EE5A0E1FF
:10507800FDC054E2070C5C831100008A02015EE364
:10508800A0E0B0010000B0E2041AA1E07040BDE861
:105098001EFF2FE1026106E2011086E1020080E1B5
:1050A800031021E0AC4054E00C5074C0041A81C1D4
:1050B8007040BDC81EFF2FC1011681E300E0A0E3C8
:1050C800014054E25D0000CA360074E30000A0D33A
:1050D800021101D27040BDD81EFF2FD1004064E2FA
:1050E800204054E21A0000AA0C4094E20C0000CAC6
:1050F800144084E2205064E21035A0E13004A0E1BD
:10510800110580E1022101E20211C1E3A30F90E041
:105118003114A2E083E09EE1A30FC0017040BDE816
:105128001EFF2FE10C4064E2205064E21034A0E13D
:105138003005A0E1110480E1021101E2A30F90E023
:105148000010A1E283E09EE1A30FC0017040BDE81A
:105158001EFF2FE1205064E210E58EE13034A0E11B
:10516800113583E13104A0E1021101E23104C0E10B
:10517800A30F80E083E09EE1A30FC0017040BDE86B
:105188001EFF2FE1000034E30800001A026101E26B
:105198008000B0E10110A1E0010611E301404402E2
:1051A800FAFFFF0A061081E1000035E31EFF2F1108
:1051B800026103E28220B0E10330A3E0010613E3B9
:1051C80001504502FAFFFF0A063083E11EFF2FE176
:1051D8000C0034E1235A0CE00C0035110700000ADA
:1051E800816090E183609211E5FFFF1A031021E0CE
:1051F800021101E20000A0E37040BDE81EFF2FE1AC
:10520800816090E10200A0010310A0018360921167
:105218001000000A0C0034E10100001A016690E158
:105228000C00001A0C0035E10300001A036692E135
:105238000200A0110310A0110600001A031021E0BB
:10524800021101E27F1481E30F1681E30000A0E35D
:105258007040BDE81EFF2FE17F1481E33E1781E314
:105268007040BDE81EFF2FE170402DE9FFC0A0E3AC
:1052780007CC8CE3214A1CE0235A1C100C00341183
:105288000C0035115E00000B054044E003E021E00E
:10529800035692E10116A0E14C00000A0336A0E192
:1052A8000152A0E3233285E1223C83E10224A0E1FC
:1052B800215285E1205C85E10064A0E102110EE243
:1052C800030055E102005601FD40A4E2034C84E2CC
:1052D8000100002AA330B0E16220A0E1026056E09C
:1052E8000350C5E0A330B0E16220A0E10106A0E3CD
:1052F80002C7A0E302E056E003E0D5E002604620E2
:105308000E50A0210C008021A330B0E16220A0E162
:1053180002E056E003E0D5E0026046200E50A021EE
:10532800AC008021A330B0E16220A0E102E056E0A9
:1053380003E0D5E0026046200E50A0212C01802118
:10534800A330B0E16220A0E102E056E003E0D5E03E
:10535800026046200E50A021AC01802106E095E1B4
:105368000D00000A0552A0E1265E85E10662A0E173
:105378008331A0E1A23E83E18221A0E12CC2B0E109
:10538800DBFFFF1A010611E30600001A001081E195
:105398000000A0E302C1A0E3D5FFFFEA010611E384
:1053A800001081010000A003FDC054E2070C5C83DB
:1053B80043FFFF8A03C055E002C05600A0C0B001F9
:1053C8000000B0E2041AA1E07040BDE81EFF2FE122
:1053D80002E10EE221168EE1AC4094E00C5074C05C
:1053E800041A81C17040BDC81EFF2FC1011681E398
:1053F80000E0A0E3014054E231FFFFEA06E085E166
:105408002FFFFFEA235A0CE00C0034E10C003501B1
:1054180090FFFF0A0C0034E10600001A014690E1F3
:105428008CFFFF1A0C0035E183FFFF1A0200A0E190
:105438000310A0E187FFFFEA0C0035E10400001A21
:10544800035692E168FFFF0A0200A0E10310A0E101
:1054580080FFFFEA816090E18360921148FFFF1AA4
:10546800814090E174FFFF1A835092E15EFFFF1ABA
:1054780078FFFFEA00C0E0E3020000EA01C0A0E311
:10548800000000EA01C0A0E304C02DE581C0A0E14E
:10549800CCCAF0E183C0A0E1CCCAF0110E00000A2A
:1054A80004D08DE281C090E183C0920103003111E4
:1054B800020030010000A0031EFF2F01000070E36E
:1054C800030031E10300515102005001C30FA02134
:1054D800C30FE031010080E31EFF2FE181C0A0E18E
:1054E800CCCAF0E10100001A01C690E10400001ADC
:1054F80083C0A0E1CCCAF0E1E8FFFF1A03C692E13D
:10550800E6FFFF0A04009DE41EFF2FE100C0A0E1B2
:105518000200A0E10C20A0E101C0A0E10310A0E17D
:105528000C30A0E1FFFFFFEA01402DE9D4FFFFEBBB
:10553800000050E3000070430140BDE81EFF2FE16A
:1055480008E02DE5F7FFFFEB0100A0030000A01322
:1055580008E09DE41EFF2FE108E02DE5F1FFFFEBD9
:105568000100A0330000A02308E09DE41EFF2FE106
:1055780008E02DE5EBFFFFEB0100A0930000A083FE
:1055880008E09DE41EFF2FE108E02DE5DEFFFFEBBC
:105598000100A0930000A08308E09DE41EFF2FE116
:1055A80008E02DE5D8FFFFEB0100A0330000A023A1
:1055B80008E09DE41EFF2FE18120A0E1022692E28F
:1055C8000C00002A0900005A3E3EE0E3C22A53E0DC
:1055D8000A00009A8135A0E1023183E3A03A83E111
:1055E800020111E33302A0E1000060121EFF2FE167
:1055F8000000A0E31EFF2FE1010690E10200001A5F
:10560800020111E20201E0031EFF2FE10000A0E306
:105618001EFF2FE1002103E00D4B5B58435004317E
:105628000C480D4B42189A42F6D30C4A02E000236C
:1056380042F8043B0A4B9A42F9D30A48016841F4FC
:1056480070010160FAF726FEFCF7C4FB7047000002
:10565800D45800080000002008010020080100209C
:105668001C01002088ED00E0FEE700006C209FE5AB
:10567800003092E510402DE9000053E360109F05CB
:105688000130A001001082050D10A0E1000083E0A8
:10569800010050E10A00008A48109FE548C09FE5D4
:1056A800001091E50C0051E10100000A010050E1F1
:1056B8000300008A000082E51040BDE80300A0E175
:1056C8001EFF2FE1090000EB0C20A0E30030E0E30F
:1056D800002080E51040BDE80300A0E11EFF2FE197
:1056E800100100201C01002004010020ADDEFECACC
:1056F80004309FE5000093E51EFF2FE1A000002085
:1057080053797374656D20737461727465640000F5
:1057180054657374000000000000000044696E20A6
:105728004D616D6D61000000796F6F6F6F6F6F0075
:105738000000000053797374656D205374617274AE
:10574800656400000000000005000000190000006A
:105758007D00000000000000000000000000F03F95
:105768000000000000002440000000000000594034
:105778000000000000408F40000000000088C34087
:1057880000000000006AF8400000000080842E41FC
:1057980000000000D01263410000000084D7974148
:1057A8000000000065CDCD41000000205FA002424E
:1057B800000000E876483742000000A2941A6D42C3
:1057C800000040E59C30A2420000901EC4BCD642B6
:1057D80000003426F56B0C430080E03779C3414361
:1057E80000A0D8855734764300C84E676DC1AB43D7
:1057F800003D9160E458E143408CB5781DAF1544F5
:1058080050EFE2D6E41A4B4492D54D06CFF08044CF
:10581800F64AE1C7022DB544B49DD9794378EA44E4
:10582800BC89D897B2D29C3C33A7A8D523F649396E
:105838003DA7F444FD0FA5329D978CCF08BA5B2590
:10584800436FAC642806C80A0080E03779C3414337
:10585800176E05B5B5B89346F5F93FE9034F384DCE
:10586800321D30F94877825A3CBF737FDD4F15757A
:10587800494E4600696E66004E414E006E616E00EC
:105888003000000030313233343536373839414250
:105898004344454600000000303132333435363752
:1058A800383961626364656600000000496E6669A4
:1058B8006E697479000000004E614E0043000000DC
:0C58C800504F5349580000002E00000013
:1058D400007A030A00000000000000000102030433
:1058E4000607080900000000010203040102030482
:1058F400060708094153434949000000000000001D
:105904000000000000000000000000000000000093
:105914000000000001000000415343494900000019
:105924000000000000000000000000000000000073
:105934000000000000000000D05800089C58000837
:105944009C5800089C5800089C5800089C58000863
:105954009C5800089C5800089C5800089C58000853
:10596400FFFFFFFFFFFFFFFFFFFFFFFFFFFF000041
:10597400A40000200000000000000000000000005F
:105984000000000000000000000000000000000013
:1059940000000000C45800080000000000000000DF
:1059A40000000000000000000000000000000000F3
:1059B40000000000000000000000000000000000E3
:1059C40000000000000000000000000000000000D3
:0859D40000000000ADDEFECA78
:040000050800561D7C
:00000001FF
